{"abi":[{"type":"constructor","inputs":[{"name":"_dripAmount","type":"uint256","internalType":"uint256"},{"name":"_cooldownPeriod","type":"uint256","internalType":"uint256"}],"stateMutability":"nonpayable"},{"type":"receive","stateMutability":"payable"},{"type":"function","name":"canRequestNow","inputs":[{"name":"_address","type":"address","internalType":"address"}],"outputs":[{"name":"","type":"bool","internalType":"bool"}],"stateMutability":"view"},{"type":"function","name":"cooldownPeriod","inputs":[],"outputs":[{"name":"","type":"uint256","internalType":"uint256"}],"stateMutability":"view"},{"type":"function","name":"dripAmount","inputs":[],"outputs":[{"name":"","type":"uint256","internalType":"uint256"}],"stateMutability":"view"},{"type":"function","name":"emergencyWithdraw","inputs":[],"outputs":[],"stateMutability":"nonpayable"},{"type":"function","name":"fundFaucet","inputs":[],"outputs":[],"stateMutability":"payable"},{"type":"function","name":"getFaucetBalance","inputs":[],"outputs":[{"name":"","type":"uint256","internalType":"uint256"}],"stateMutability":"view"},{"type":"function","name":"getTimeUntilNextDrip","inputs":[{"name":"_address","type":"address","internalType":"address"}],"outputs":[{"name":"","type":"uint256","internalType":"uint256"}],"stateMutability":"view"},{"type":"function","name":"lastDripTime","inputs":[{"name":"","type":"address","internalType":"address"}],"outputs":[{"name":"","type":"uint256","internalType":"uint256"}],"stateMutability":"view"},{"type":"function","name":"owner","inputs":[],"outputs":[{"name":"","type":"address","internalType":"address"}],"stateMutability":"view"},{"type":"function","name":"requestMON","inputs":[],"outputs":[],"stateMutability":"nonpayable"},{"type":"function","name":"updateConfig","inputs":[{"name":"_dripAmount","type":"uint256","internalType":"uint256"},{"name":"_cooldownPeriod","type":"uint256","internalType":"uint256"}],"outputs":[],"stateMutability":"nonpayable"},{"type":"event","name":"ConfigUpdated","inputs":[{"name":"newDripAmount","type":"uint256","indexed":false,"internalType":"uint256"},{"name":"newCooldownPeriod","type":"uint256","indexed":false,"internalType":"uint256"}],"anonymous":false},{"type":"event","name":"Drip","inputs":[{"name":"recipient","type":"address","indexed":true,"internalType":"address"},{"name":"amount","type":"uint256","indexed":false,"internalType":"uint256"},{"name":"timestamp","type":"uint256","indexed":false,"internalType":"uint256"}],"anonymous":false},{"type":"event","name":"FaucetFunded","inputs":[{"name":"funder","type":"address","indexed":true,"internalType":"address"},{"name":"amount","type":"uint256","indexed":false,"internalType":"uint256"}],"anonymous":false}],"bytecode":{"object":"0x608060405234801561000f575f80fd5b5060405161074a38038061074a83398101604081905261002e9161004d565b5f80546001600160a01b0319163317905560019190915560025561006f565b5f806040838503121561005e575f80fd5b505080516020909101519092909150565b6106ce8061007c5f395ff3fe60806040526004361061009d575f3560e01c80638248e722116100625780638248e722146101675780638b8a60bd146101865780638da5cb5b146101b1578063a20b4a0a146101e7578063db2e21bc14610206578063f1f959a61461021a575f80fd5b806303ea9e77146100dd57806304646a49146100f35780632dae71941461011b57806335a1529b1461014a5780636a211d6a1461015f575f80fd5b366100d95760405134815233907f7a5b46da290ee3d909b4070dcddb80b741e0365f2deb452791308c5c079fc5739060200160405180910390a2005b5f80fd5b3480156100e8575f80fd5b506100f161022c565b005b3480156100fe575f80fd5b5061010860025481565b6040519081526020015b60405180910390f35b348015610126575f80fd5b5061013a610135366004610612565b6103b8565b6040519015158152602001610112565b348015610155575f80fd5b5061010860015481565b6100f16103e7565b348015610172575f80fd5b506100f1610181366004610638565b61045d565b348015610191575f80fd5b506101086101a0366004610612565b60036020525f908152604090205481565b3480156101bc575f80fd5b505f546101cf906001600160a01b031681565b6040516001600160a01b039091168152602001610112565b3480156101f2575f80fd5b50610108610201366004610612565b6104ea565b348015610211575f80fd5b506100f1610535565b348015610225575f80fd5b5047610108565b600254335f90815260036020526040902054610248919061066c565b42101561029c5760405162461bcd60e51b815260206004820152601b60248201527f436f6f6c646f776e20706572696f64206e6f742065787069726564000000000060448201526064015b60405180910390fd5b6001544710156102e05760405162461bcd60e51b815260206004820152600f60248201526e46617563657420697320656d70747960881b6044820152606401610293565b335f8181526003602052604080822042905560015490519192918381818185875af1925050503d805f8114610330576040519150601f19603f3d011682016040523d82523d5f602084013e610335565b606091505b50509050806103785760405162461bcd60e51b815260206004820152600f60248201526e151c985b9cd9995c8819985a5b1959608a1b6044820152606401610293565b6001546040805191825242602083015233917fa4acd6546ca2a791c494afafa902f3ea075e5f5381f061cc8ec601651591a59b910160405180910390a250565b6002546001600160a01b0382165f9081526003602052604081205490916103de9161066c565b42101592915050565b5f34116104265760405162461bcd60e51b815260206004820152600d60248201526c26bab9ba1039b2b7321026a7a760991b6044820152606401610293565b60405134815233907f7a5b46da290ee3d909b4070dcddb80b741e0365f2deb452791308c5c079fc5739060200160405180910390a2565b5f546001600160a01b031633146104a35760405162461bcd60e51b815260206004820152600a60248201526927b7363c9037bbb732b960b11b6044820152606401610293565b6001829055600281905560408051838152602081018390527f0936b3616d5072fa8f7381ef8e7c35d39bed9ecfb2184e908a56027ad5c0b6bc910160405180910390a15050565b6002546001600160a01b0382165f9081526003602052604081205490918291610513919061066c565b905080421061052457505f92915050565b61052e4282610685565b9392505050565b5f546001600160a01b0316331461057b5760405162461bcd60e51b815260206004820152600a60248201526927b7363c9037bbb732b960b11b6044820152606401610293565b5f80546040514792916001600160a01b03169083908381818185875af1925050503d805f81146105c6576040519150601f19603f3d011682016040523d82523d5f602084013e6105cb565b606091505b505090508061060e5760405162461bcd60e51b815260206004820152600f60248201526e15da5d1a191c985dc819985a5b1959608a1b6044820152606401610293565b5050565b5f60208284031215610622575f80fd5b81356001600160a01b038116811461052e575f80fd5b5f8060408385031215610649575f80fd5b50508035926020909101359150565b634e487b7160e01b5f52601160045260245ffd5b8082018082111561067f5761067f610658565b92915050565b8181038181111561067f5761067f61065856fea2646970667358221220eb8b863017a694dfe081ed6af0e3697830d9fac6e4fc7f087e8e772abbe88c2464736f6c63430008140033","linkReferences":{}},"methodIdentifiers":{"canRequestNow(address)":"2dae7194","cooldownPeriod()":"04646a49","dripAmount()":"35a1529b","emergencyWithdraw()":"db2e21bc","fundFaucet()":"6a211d6a","getFaucetBalance()":"f1f959a6","getTimeUntilNextDrip(address)":"a20b4a0a","lastDripTime(address)":"8b8a60bd","owner()":"8da5cb5b","requestMON()":"03ea9e77","updateConfig(uint256,uint256)":"8248e722"},"id":1}