{"abi":[{"type":"constructor","inputs":[],"stateMutability":"nonpayable"},{"type":"fallback","stateMutability":"payable"},{"type":"receive","stateMutability":"payable"},{"type":"function","name":"ACCEPTANCE_TIMELOCK","inputs":[],"outputs":[{"name":"","type":"uint256","internalType":"uint256"}],"stateMutability":"view"},{"type":"function","name":"CREATOR","inputs":[],"outputs":[{"name":"","type":"address","internalType":"address"}],"stateMutability":"view"},{"type":"function","name":"EQUITY_CLASS","inputs":[],"outputs":[{"name":"","type":"string","internalType":"string"}],"stateMutability":"view"},{"type":"function","name":"EQUITY_RIGHTS","inputs":[],"outputs":[{"name":"","type":"string","internalType":"string"}],"stateMutability":"view"},{"type":"function","name":"PARTNERSHIP_BOND","inputs":[],"outputs":[{"name":"","type":"uint256","internalType":"uint256"}],"stateMutability":"view"},{"type":"function","name":"PARTNERSHIP_EQUITY","inputs":[],"outputs":[{"name":"","type":"uint256","internalType":"uint256"}],"stateMutability":"view"},{"type":"function","name":"SETTLEMENT_AMOUNT","inputs":[],"outputs":[{"name":"","type":"uint256","internalType":"uint256"}],"stateMutability":"view"},{"type":"function","name":"WITHDRAWAL_TIMELOCK","inputs":[],"outputs":[{"name":"","type":"uint256","internalType":"uint256"}],"stateMutability":"view"},{"type":"function","name":"acceptAgreement","inputs":[],"outputs":[],"stateMutability":"nonpayable"},{"type":"function","name":"agreementNonce","inputs":[],"outputs":[{"name":"","type":"uint256","internalType":"uint256"}],"stateMutability":"view"},{"type":"function","name":"cancelProposal","inputs":[],"outputs":[],"stateMutability":"nonpayable"},{"type":"function","name":"currentAgreement","inputs":[],"outputs":[{"name":"agreementType","type":"uint8","internalType":"enum RumbleMediationTestnet.AgreementType"},{"name":"status","type":"uint8","internalType":"enum RumbleMediationTestnet.AgreementStatus"},{"name":"rumbleAddress","type":"address","internalType":"address"},{"name":"amount","type":"uint256","internalType":"uint256"},{"name":"proposalTimestamp","type":"uint256","internalType":"uint256"},{"name":"acceptanceTimestamp","type":"uint256","internalType":"uint256"},{"name":"termsHash","type":"string","internalType":"string"},{"name":"creatorAccepted","type":"bool","internalType":"bool"},{"name":"fundsLocked","type":"bool","internalType":"bool"}],"stateMutability":"view"},{"type":"function","name":"emergencyPause","inputs":[],"outputs":[],"stateMutability":"nonpayable"},{"type":"function","name":"emergencyUnpause","inputs":[],"outputs":[],"stateMutability":"nonpayable"},{"type":"function","name":"equityGrant","inputs":[],"outputs":[{"name":"percentage","type":"uint256","internalType":"uint256"},{"name":"documentHash","type":"string","internalType":"string"},{"name":"grantedAt","type":"uint256","internalType":"uint256"},{"name":"active","type":"bool","internalType":"bool"},{"name":"nonForfeitable","type":"bool","internalType":"bool"}],"stateMutability":"view"},{"type":"function","name":"equityHistory","inputs":[{"name":"","type":"uint256","internalType":"uint256"}],"outputs":[{"name":"nonce","type":"uint256","internalType":"uint256"},{"name":"percentage","type":"uint256","internalType":"uint256"},{"name":"grantedAt","type":"uint256","internalType":"uint256"},{"name":"terminatedAt","type":"uint256","internalType":"uint256"},{"name":"wasActive","type":"bool","internalType":"bool"},{"name":"terminationReason","type":"string","internalType":"string"}],"stateMutability":"view"},{"type":"function","name":"getAgreementDetails","inputs":[],"outputs":[{"name":"nonce","type":"uint256","internalType":"uint256"},{"name":"agreementType","type":"uint8","internalType":"enum RumbleMediationTestnet.AgreementType"},{"name":"status","type":"uint8","internalType":"enum RumbleMediationTestnet.AgreementStatus"},{"name":"rumbleAddress","type":"address","internalType":"address"},{"name":"amount","type":"uint256","internalType":"uint256"},{"name":"proposalTimestamp","type":"uint256","internalType":"uint256"},{"name":"acceptanceTimestamp","type":"uint256","internalType":"uint256"},{"name":"termsHash","type":"string","internalType":"string"},{"name":"fundsLocked","type":"bool","internalType":"bool"}],"stateMutability":"view"},{"type":"function","name":"getBalance","inputs":[],"outputs":[{"name":"","type":"uint256","internalType":"uint256"}],"stateMutability":"view"},{"type":"function","name":"getEquityDetails","inputs":[],"outputs":[{"name":"percentage","type":"uint256","internalType":"uint256"},{"name":"documentHash","type":"string","internalType":"string"},{"name":"grantedAt","type":"uint256","internalType":"uint256"},{"name":"active","type":"bool","internalType":"bool"},{"name":"nonForfeitable","type":"bool","internalType":"bool"},{"name":"equityClass","type":"string","internalType":"string"},{"name":"equityRights","type":"string","internalType":"string"}],"stateMutability":"view"},{"type":"function","name":"getEquityHistoryCount","inputs":[],"outputs":[{"name":"","type":"uint256","internalType":"uint256"}],"stateMutability":"view"},{"type":"function","name":"getPendingWithdrawal","inputs":[{"name":"account","type":"address","internalType":"address"}],"outputs":[{"name":"","type":"uint256","internalType":"uint256"}],"stateMutability":"view"},{"type":"function","name":"getWithdrawalTimelock","inputs":[],"outputs":[{"name":"","type":"uint256","internalType":"uint256"}],"stateMutability":"view"},{"type":"function","name":"hasActiveEquity","inputs":[],"outputs":[{"name":"","type":"bool","internalType":"bool"}],"stateMutability":"view"},{"type":"function","name":"initiateSettlementWithdrawal","inputs":[],"outputs":[],"stateMutability":"nonpayable"},{"type":"function","name":"isAgreementActive","inputs":[],"outputs":[{"name":"","type":"bool","internalType":"bool"}],"stateMutability":"view"},{"type":"function","name":"paused","inputs":[],"outputs":[{"name":"","type":"bool","internalType":"bool"}],"stateMutability":"view"},{"type":"function","name":"pendingWithdrawals","inputs":[{"name":"","type":"address","internalType":"address"}],"outputs":[{"name":"","type":"uint256","internalType":"uint256"}],"stateMutability":"view"},{"type":"function","name":"proposePartnership","inputs":[{"name":"_termsHash","type":"string","internalType":"string"},{"name":"_equityDocumentHash","type":"string","internalType":"string"}],"outputs":[],"stateMutability":"payable"},{"type":"function","name":"proposeSettlement","inputs":[{"name":"_termsHash","type":"string","internalType":"string"}],"outputs":[],"stateMutability":"payable"},{"type":"function","name":"terminateAgreement","inputs":[{"name":"_reason","type":"string","internalType":"string"}],"outputs":[],"stateMutability":"nonpayable"},{"type":"function","name":"withdraw","inputs":[],"outputs":[],"stateMutability":"nonpayable"},{"type":"event","name":"AgreementAccepted","inputs":[{"name":"nonce","type":"uint256","indexed":true,"internalType":"uint256"},{"name":"agreementType","type":"uint8","indexed":false,"internalType":"enum RumbleMediationTestnet.AgreementType"},{"name":"rumbleAddress","type":"address","indexed":true,"internalType":"address"},{"name":"acceptanceTimestamp","type":"uint256","indexed":false,"internalType":"uint256"}],"anonymous":false},{"type":"event","name":"AgreementProposed","inputs":[{"name":"nonce","type":"uint256","indexed":true,"internalType":"uint256"},{"name":"agreementType","type":"uint8","indexed":false,"internalType":"enum RumbleMediationTestnet.AgreementType"},{"name":"rumbleAddress","type":"address","indexed":true,"internalType":"address"},{"name":"amount","type":"uint256","indexed":false,"internalType":"uint256"},{"name":"termsHash","type":"string","indexed":false,"internalType":"string"},{"name":"timestamp","type":"uint256","indexed":false,"internalType":"uint256"}],"anonymous":false},{"type":"event","name":"AgreementTerminated","inputs":[{"name":"nonce","type":"uint256","indexed":true,"internalType":"uint256"},{"name":"terminatedBy","type":"address","indexed":true,"internalType":"address"},{"name":"timestamp","type":"uint256","indexed":false,"internalType":"uint256"},{"name":"reason","type":"string","indexed":false,"internalType":"string"}],"anonymous":false},{"type":"event","name":"EmergencyPause","inputs":[{"name":"timestamp","type":"uint256","indexed":false,"internalType":"uint256"}],"anonymous":false},{"type":"event","name":"EmergencyUnpause","inputs":[{"name":"timestamp","type":"uint256","indexed":false,"internalType":"uint256"}],"anonymous":false},{"type":"event","name":"EquityGranted","inputs":[{"name":"nonce","type":"uint256","indexed":true,"internalType":"uint256"},{"name":"beneficiary","type":"address","indexed":true,"internalType":"address"},{"name":"equityPercentage","type":"uint256","indexed":false,"internalType":"uint256"},{"name":"nonForfeitable","type":"bool","indexed":false,"internalType":"bool"},{"name":"equityClass","type":"string","indexed":false,"internalType":"string"},{"name":"equityRights","type":"string","indexed":false,"internalType":"string"},{"name":"timestamp","type":"uint256","indexed":false,"internalType":"uint256"}],"anonymous":false},{"type":"event","name":"FundsWithdrawn","inputs":[{"name":"to","type":"address","indexed":true,"internalType":"address"},{"name":"amount","type":"uint256","indexed":false,"internalType":"uint256"},{"name":"timestamp","type":"uint256","indexed":false,"internalType":"uint256"}],"anonymous":false},{"type":"event","name":"PartnershipProposed","inputs":[{"name":"nonce","type":"uint256","indexed":true,"internalType":"uint256"},{"name":"rumbleAddress","type":"address","indexed":true,"internalType":"address"},{"name":"bondAmount","type":"uint256","indexed":false,"internalType":"uint256"},{"name":"equityPercentage","type":"uint256","indexed":false,"internalType":"uint256"},{"name":"equityDocument","type":"string","indexed":false,"internalType":"string"},{"name":"equityRights","type":"string","indexed":false,"internalType":"string"},{"name":"timestamp","type":"uint256","indexed":false,"internalType":"uint256"}],"anonymous":false},{"type":"event","name":"WithdrawalReady","inputs":[{"name":"beneficiary","type":"address","indexed":true,"internalType":"address"},{"name":"amount","type":"uint256","indexed":false,"internalType":"uint256"},{"name":"timestamp","type":"uint256","indexed":false,"internalType":"uint256"}],"anonymous":false},{"type":"error","name":"AgreementAlreadyExists","inputs":[]},{"type":"error","name":"ContractPaused","inputs":[]},{"type":"error","name":"FundsAlreadyUnlocked","inputs":[]},{"type":"error","name":"InvalidAddress","inputs":[]},{"type":"error","name":"InvalidAgreementStatus","inputs":[]},{"type":"error","name":"InvalidAmount","inputs":[]},{"type":"error","name":"InvalidTermsHash","inputs":[]},{"type":"error","name":"NoActiveAgreement","inputs":[]},{"type":"error","name":"NoWithdrawalAvailable","inputs":[]},{"type":"error","name":"OnlyCreator","inputs":[]},{"type":"error","name":"OnlyRumble","inputs":[]},{"type":"error","name":"ReentrancyDetected","inputs":[]},{"type":"error","name":"TimelockNotExpired","inputs":[]},{"type":"error","name":"TransferFailed","inputs":[]}],"bytecode":{"object":"0x60806040526001600a55600b805460ff1916905534801561001e575f80fd5b505f600d556121af806100305f395ff3fe6080604052600436106101db575f3560e01c80638c54825611610101578063c90f793e11610094578063e697103711610063578063e697103714610587578063eaf057621461059b578063efcdcad8146105b5578063f3f43703146105dc57610245565b8063c90f793e146104f7578063dac96d4a14610520578063dc9f89e814610534578063e4fbb6091461054857610245565b8063b4bd7784116100d0578063b4bd778414610470578063bc831ade14610499578063bced4fb4146104b8578063c6b158a6146104d257610245565b80638c548256146104035780639070577f14610416578063a0cc8d2c1461042a578063b02523891461043f57610245565b80634a4e3bd511610179578063536f899b11610148578063536f899b146103815780635c975abb146103955780637ee8b2f8146103ae57806380c4ca5c146103e257610245565b80634a4e3bd5146103305780634d4394851461034457806351858e271461035957806352928eec1461036d57610245565b8063188323f9116101b5578063188323f9146102dd5780633ccfd60b146102f2578063455ab3ad1461030857806345a1fa471461031b57610245565b80630a945f6c1461028557806312065fe0146102ad5780631413332d146102c957610245565b366102455760405162461bcd60e51b815260206004820152602f60248201527f5573652070726f706f7365506172746e6572736869702829206f722070726f7060448201526e6f7365536574746c656d656e74282960881b60648201526084015b60405180910390fd5b60405162461bcd60e51b8152602060048201526015602482015274125b9d985b1a5908199d5b98dd1a5bdb8818d85b1b605a1b604482015260640161023c565b348015610290575f80fd5b5060095460ff165b60405190151581526020015b60405180910390f35b3480156102b8575f80fd5b50475b6040519081526020016102a4565b3480156102d4575f80fd5b50600e546102bb565b3480156102e8575f80fd5b506102bb61012c81565b3480156102fd575f80fd5b50610306610607565b005b610306610316366004611b6e565b61072a565b348015610326575f80fd5b506102bb6101f481565b34801561033b575f80fd5b506103066109b1565b34801561034f575f80fd5b506102bb61025881565b348015610364575f80fd5b50610306610a25565b348015610378575f80fd5b50610306610a98565b34801561038c575f80fd5b506102bb610c74565b3480156103a0575f80fd5b50600b546102989060ff1681565b3480156103b9575f80fd5b506102bb6103c8366004611bce565b6001600160a01b03165f908152600c602052604090205490565b3480156103ed575f80fd5b506103f6610cb8565b6040516102a49190611c3e565b610306610411366004611c50565b610cd4565b348015610421575f80fd5b50610306610e6d565b348015610435575f80fd5b506102bb600d5481565b34801561044a575f80fd5b5061045e610459366004611c8a565b610fb4565b6040516102a496959493929190611ca1565b34801561047b575f80fd5b50610484611088565b6040516102a499989796959493929190611d17565b3480156104a4575f80fd5b506103066104b3366004611c50565b611185565b3480156104c3575f80fd5b506102bb66b1a2bc2ec5000081565b3480156104dd575f80fd5b506104e661140c565b6040516102a4959493929190611d84565b348015610502575f80fd5b5061050b6114ba565b6040516102a499989796959493929190611dbb565b34801561052b575f80fd5b5061030661158a565b34801561053f575f80fd5b506103f661190c565b348015610553575f80fd5b5061056f735635e21b1ea43b65b3bf96283b09d094478e279381565b6040516001600160a01b0390911681526020016102a4565b348015610592575f80fd5b50610298611928565b3480156105a6575f80fd5b506102bb6658d15e1762800081565b3480156105c0575f80fd5b506105c961194c565b6040516102a49796959493929190611e27565b3480156105e7575f80fd5b506102bb6105f6366004611bce565b600c6020525f908152604090205481565b600a5460011461062a5760405163c5f2be5160e01b815260040160405180910390fd5b6002600a55335f908152600c60205260408120549081900361065f57604051632632599760e01b815260040160405180910390fd5b335f818152600c60205260408082208290555190919083908381818185875af1925050503d805f81146106ad576040519150601f19603f3d011682016040523d82523d5f602084013e6106b2565b606091505b50509050806106e657335f908152600c60205260409081902083905580516312171d8360e31b815290519081900360040190fd5b6040805183815242602082015233917ffbc3a599b784fe88772fc5abcc07223f64ca0b13acc341f4fb1e46bef0510eb491015b60405180910390a250506001600a55565b600b5460ff161561074e5760405163ab35696f60e01b815260040160405180910390fd5b600a546001146107715760405163c5f2be5160e01b815260040160405180910390fd5b6002600a5566b1a2bc2ec5000034811461079e5760405163162908e360e11b815260040160405180910390fd5b6107a6611a4a565b6107af83611aad565b6107b882611aad565b600d8054905f6107c783611e9d565b9091555050604080516101208101825260018082526020820181905233928201839052346060830181905242608084018190525f60a0850181905260c0850189905260e08501819052610100850184905280546001600160b01b03191662010000909602959095176101011785559155600255600382905590600461084c8682611f3b565b5060e082015160059190910180546101009384015161ffff1990911692151561ff001916929092179115159092021790556040805160a0810182526101f4808252602082018590525f92820183905260608201929092526001608082015260069182559060076108bc8582611f3b565b50604082810151600283015560608301516003909201805460809094015115156101000261ff00199315159390931661ffff199094169390931791909117909155600d5490513391907fed43a46c12e63176b331f4df259866a37ee326d94dbd18afb3c63039caf7d0c19061093990600190349089904290611ff7565b60405180910390a3336001600160a01b0316600d547fa1bec0276d9efd8fe681aa61e0ab2d513f257405d7f4d532ebeb24110065c932346101f4866040518060800160405280604a8152602001612130604a91394260405161099f95949392919061202d565b60405180910390a350506001600a5550565b33735635e21b1ea43b65b3bf96283b09d094478e2793146109e5576040516308f78f9960e31b815260040160405180910390fd5b600b805460ff191690556040514281527f1e7a8ac67210be5d6edb8a93048473305f40bd55241b6a205517452213cdb06f906020015b60405180910390a1565b33735635e21b1ea43b65b3bf96283b09d094478e279314610a59576040516308f78f9960e31b815260040160405180910390fd5b600b805460ff191660011790556040517f587f3b25da67017c0da715067ea23a00ce02a7692dde05787d04b933a068819890610a1b9042815260200190565b33735635e21b1ea43b65b3bf96283b09d094478e279314610acc576040516308f78f9960e31b815260040160405180910390fd5b600a54600114610aef5760405163c5f2be5160e01b815260040160405180910390fd5b6002600a8190555f54610100900460ff166003811115610b1157610b11611cdf565b14610b2f5760405163af22741760e01b815260040160405180910390fd5b60025f5460ff166002811115610b4757610b47611cdf565b14610b655760405163af22741760e01b815260040160405180910390fd5b600554610100900460ff16610b8d57604051630786e20360e41b815260040160405180910390fd5b6003545f90610b9f9061025890612070565b905080421015610bc25760405163621e25c360e01b815260040160405180910390fd5b600180545f918290556005805461ff0019169055735635e21b1ea43b65b3bf96283b09d094478e27938252600c6020527f1ec02b8b40aab1d3b8bcc4eda42dc39b3a54a48a1d095cab09b89699578a0f95805491928392610c24908490612070565b909155505060408051828152426020820152735635e21b1ea43b65b3bf96283b09d094478e2793917fbde9dd77301c124ff58cc22d02f35d6f26cd71412fa385b4ac5991838029ba4a9101610719565b6003545f908103610c8557505f1990565b6003545f90610c979061025890612070565b905080421015610cb057610cab4282612089565b610cb2565b5f5b91505090565b6040518060600160405280602c8152602001612104602c913981565b600b5460ff1615610cf85760405163ab35696f60e01b815260040160405180910390fd5b600a54600114610d1b5760405163c5f2be5160e01b815260040160405180910390fd5b6002600a556658d15e17628000348114610d485760405163162908e360e11b815260040160405180910390fd5b610d50611a4a565b610d5982611aad565b600d8054905f610d6883611e9d565b90915550506040805161012081018252600280825260016020830181905233938301849052346060840181905242608085018190525f60a0860181905260c0860189905260e08601819052610100860184905280546001600160b01b0319166201000090970296909617610102178655915590556003829055906004610dee8582611f3b565b5060e082015160059190910180546101009384015161ffff1990911692151561ff00191692909217911515909202179055600d546040513391907fed43a46c12e63176b331f4df259866a37ee326d94dbd18afb3c63039caf7d0c190610e5c90600290349088904290611ff7565b60405180910390a350506001600a55565b5f546201000090046001600160a01b0316610e9b5760405163e6c4247b60e01b815260040160405180910390fd5b5f546201000090046001600160a01b03163314610ecb57604051631901485d60e31b815260040160405180910390fd5b600a54600114610eee5760405163c5f2be5160e01b815260040160405180910390fd5b6002600a5560015f54610100900460ff166003811115610f1057610f10611cdf565b14610f2e5760405163af22741760e01b815260040160405180910390fd5b600180545f805461030061ff00199182161782559281905560058054909316909255338252600c60205260408220805491928392610f6d908490612070565b90915550506040805182815242602082015233917fbde9dd77301c124ff58cc22d02f35d6f26cd71412fa385b4ac5991838029ba4a910160405180910390a2506001600a55565b600e8181548110610fc3575f80fd5b5f91825260209091206006909102018054600182015460028301546003840154600485015460058601805495975093959294919360ff909116929161100790611eb5565b80601f016020809104026020016040519081016040528092919081815260200182805461103390611eb5565b801561107e5780601f106110555761010080835404028352916020019161107e565b820191905f5260205f20905b81548152906001019060200180831161106157829003601f168201915b5050505050905086565b600d545f805460015460025460035460055460048054969788978897889788978897889760609789979660ff80881697610100808204831698620100009092046001600160a01b0316979196919591949391049091169082906110ea90611eb5565b80601f016020809104026020016040519081016040528092919081815260200182805461111690611eb5565b80156111615780601f1061113857610100808354040283529160200191611161565b820191905f5260205f20905b81548152906001019060200180831161114457829003601f168201915b50505050509150985098509850985098509850985098509850909192939495969798565b33735635e21b1ea43b65b3bf96283b09d094478e2793146111b9576040516308f78f9960e31b815260040160405180910390fd5b600a546001146111dc5760405163c5f2be5160e01b815260040160405180910390fd5b6002600a8190555f54610100900460ff1660038111156111fe576111fe611cdf565b1461121c5760405163af22741760e01b815260040160405180910390fd5b5f805461ff001916610300179055600d546040513391907f5f1864be0cf3e7cfe0acdea144e7f6c03dd92322b8059b0f52dd2c5f41ac2f1b90611262904290869061209c565b60405180910390a360015f5460ff16600281111561128257611282611cdf565b148015611290575060015415155b1561140457600180545f918290556005805461ff00191690556009805460ff19169055905b600e5481101561138957600d54600e82815481106112d5576112d56120b4565b905f5260205f2090600602015f01541480156113165750600e81815481106112ff576112ff6120b4565b5f91825260209091206004600690920201015460ff165b156113775742600e828154811061132f5761132f6120b4565b905f5260205f2090600602016003018190555082600e8281548110611356576113566120b4565b905f5260205f20906006020160050190816113719190611f3b565b50611389565b8061138181611e9d565b9150506112b5565b505f80546201000090046001600160a01b03168152600c6020526040812080548392906113b7908490612070565b90915550505f5460408051838152426020820152620100009092046001600160a01b0316917fbde9dd77301c124ff58cc22d02f35d6f26cd71412fa385b4ac5991838029ba4a9101610719565b506001600a55565b600680546007805491929161142090611eb5565b80601f016020809104026020016040519081016040528092919081815260200182805461144c90611eb5565b80156114975780601f1061146e57610100808354040283529160200191611497565b820191905f5260205f20905b81548152906001019060200180831161147a57829003601f168201915b50505050600283015460039093015491929160ff80821692506101009091041685565b5f80546001546002546003546004805460ff808716976101008804909116966201000090046001600160a01b03169594939290916114f790611eb5565b80601f016020809104026020016040519081016040528092919081815260200182805461152390611eb5565b801561156e5780601f106115455761010080835404028352916020019161156e565b820191905f5260205f20905b81548152906001019060200180831161155157829003601f168201915b5050506005909301549192505060ff8082169161010090041689565b33735635e21b1ea43b65b3bf96283b09d094478e2793146115be576040516308f78f9960e31b815260040160405180910390fd5b600b5460ff16156115e25760405163ab35696f60e01b815260040160405180910390fd5b600a546001146116055760405163c5f2be5160e01b815260040160405180910390fd5b6002600a5560015f54610100900460ff16600381111561162757611627611cdf565b146116455760405163af22741760e01b815260040160405180910390fd5b6002546116559061012c90612070565b4210156116755760405163621e25c360e01b815260040160405180910390fd5b5f805461020061ff00198216179091556005805460ff19166001908117909155426003559060ff1660028111156116ae576116ae611cdf565b036118b45760098054600160ff1991821681179092554260088190556040805160c081018252600d5481526101f460208083019182528284019485525f6060840181815260808501898152865193840190965281835260a08501928352600e8054998a01815590915283517fbb7b4a454dc3493923482f07822329ed19e8244eff582cc204f8554c3620c3fd600690990298890190815592517fbb7b4a454dc3493923482f07822329ed19e8244eff582cc204f8554c3620c3fe89015594517fbb7b4a454dc3493923482f07822329ed19e8244eff582cc204f8554c3620c3ff88015593517fbb7b4a454dc3493923482f07822329ed19e8244eff582cc204f8554c3620c40087015591517fbb7b4a454dc3493923482f07822329ed19e8244eff582cc204f8554c3620c40186018054909516901515179093559051919290917fbb7b4a454dc3493923482f07822329ed19e8244eff582cc204f8554c3620c4029091019061181d9082611f3b565b505050735635e21b1ea43b65b3bf96283b09d094478e27936001600160a01b0316600d547fccd3fca0964b06ce914f55c0cfdb23325813afc4abb4bd0032ad1b76edaa090e6101f460016040518060600160405280602c8152602001612104602c91396040518060800160405280604a8152602001612130604a9139426040516118ab9594939291906120c8565b60405180910390a35b5f54600d546040516001600160a01b0362010000840416927f223987ca7f746b73e791afba0695e118eef70630a727133680dbb7f9e69bfc61916118fd9160ff169042906120e8565b60405180910390a36001600a55565b6040518060800160405280604a8152602001612130604a913981565b5f60025f54610100900460ff16600381111561194657611946611cdf565b14905090565b600654600854600954604080516060818101909252602c8082525f9592948694859485948894859492936007939260ff80831693610100909304169161210460208301396040518060800160405280604a8152602001612130604a91398580546119b590611eb5565b80601f01602080910402602001604051908101604052809291908181526020018280546119e190611eb5565b8015611a2c5780601f10611a0357610100808354040283529160200191611a2c565b820191905f5260205f20905b815481529060010190602001808311611a0f57829003601f168201915b50505050509550965096509650965096509650965090919293949596565b60015f54610100900460ff166003811115611a6757611a67611cdf565b1480611a8d575060025f54610100900460ff166003811115611a8b57611a8b611cdf565b145b15611aab5760405163ce8dc70f60e01b815260040160405180910390fd5b565b80515f03611ace576040516392a3c43160e01b815260040160405180910390fd5b50565b634e487b7160e01b5f52604160045260245ffd5b5f82601f830112611af4575f80fd5b813567ffffffffffffffff80821115611b0f57611b0f611ad1565b604051601f8301601f19908116603f01168101908282118183101715611b3757611b37611ad1565b81604052838152866020858801011115611b4f575f80fd5b836020870160208301375f602085830101528094505050505092915050565b5f8060408385031215611b7f575f80fd5b823567ffffffffffffffff80821115611b96575f80fd5b611ba286838701611ae5565b93506020850135915080821115611bb7575f80fd5b50611bc485828601611ae5565b9150509250929050565b5f60208284031215611bde575f80fd5b81356001600160a01b0381168114611bf4575f80fd5b9392505050565b5f81518084525f5b81811015611c1f57602081850181015186830182015201611c03565b505f602082860101526020601f19601f83011685010191505092915050565b602081525f611bf46020830184611bfb565b5f60208284031215611c60575f80fd5b813567ffffffffffffffff811115611c76575f80fd5b611c8284828501611ae5565b949350505050565b5f60208284031215611c9a575f80fd5b5035919050565b868152856020820152846040820152836060820152821515608082015260c060a08201525f611cd360c0830184611bfb565b98975050505050505050565b634e487b7160e01b5f52602160045260245ffd5b60038110611d0357611d03611cdf565b9052565b60048110611d0357611d03611cdf565b5f6101208b8352611d2b602084018c611cf3565b611d38604084018b611d07565b60018060a01b03891660608401528760808401528660a08401528560c08401528060e0840152611d6a81840186611bfb565b9150508215156101008301529a9950505050505050505050565b85815260a060208201525f611d9c60a0830187611bfb565b6040830195909552509115156060830152151560809091015292915050565b5f610120611dc9838d611cf3565b611dd6602084018c611d07565b60018060a01b038a1660408401528860608401528760808401528660a08401528060c0840152611e0881840187611bfb565b94151560e0840152505090151561010090910152979650505050505050565b87815260e060208201525f611e3f60e0830189611bfb565b8760408401528615156060840152851515608084015282810360a0840152611e678186611bfb565b905082810360c0840152611e7b8185611bfb565b9a9950505050505050505050565b634e487b7160e01b5f52601160045260245ffd5b5f60018201611eae57611eae611e89565b5060010190565b600181811c90821680611ec957607f821691505b602082108103611ee757634e487b7160e01b5f52602260045260245ffd5b50919050565b601f821115611f36575f81815260208120601f850160051c81016020861015611f135750805b601f850160051c820191505b81811015611f3257828155600101611f1f565b5050505b505050565b815167ffffffffffffffff811115611f5557611f55611ad1565b611f6981611f638454611eb5565b84611eed565b602080601f831160018114611f9c575f8415611f855750858301515b5f19600386901b1c1916600185901b178555611f32565b5f85815260208120601f198616915b82811015611fca57888601518255948401946001909101908401611fab565b5085821015611fe757878501515f19600388901b60f8161c191681555b5050505050600190811b01905550565b6120018186611cf3565b836020820152608060408201525f61201c6080830185611bfb565b905082606083015295945050505050565b85815284602082015260a060408201525f61204b60a0830186611bfb565b828103606084015261205d8186611bfb565b9150508260808301529695505050505050565b8082018082111561208357612083611e89565b92915050565b8181038181111561208357612083611e89565b828152604060208201525f611c826040830184611bfb565b634e487b7160e01b5f52603260045260245ffd5b858152841515602082015260a060408201525f61204b60a0830186611bfb565b604081016120f68285611cf3565b826020830152939250505056fe46756c6c792064696c757465642c2073616d6520636c61737320617320666f756e646572732f636f6d6d6f6e4e6f6e2d666f726665697461626c652c206e6f20726570757263686173652c206e6f20636c61776261636b2c206e6f20647261672d616c6f6e6720776974686f757420636f6e73656e74a2646970667358221220a87d95e91ff9c963eb904e80324f1164fda0847af30b5ae2e434e48a05e20b0464736f6c63430008140033","linkReferences":{}},"methodIdentifiers":{"ACCEPTANCE_TIMELOCK()":"188323f9","CREATOR()":"e4fbb609","EQUITY_CLASS()":"80c4ca5c","EQUITY_RIGHTS()":"dc9f89e8","PARTNERSHIP_BOND()":"bced4fb4","PARTNERSHIP_EQUITY()":"45a1fa47","SETTLEMENT_AMOUNT()":"eaf05762","WITHDRAWAL_TIMELOCK()":"4d439485","acceptAgreement()":"dac96d4a","agreementNonce()":"a0cc8d2c","cancelProposal()":"9070577f","currentAgreement()":"c90f793e","emergencyPause()":"51858e27","emergencyUnpause()":"4a4e3bd5","equityGrant()":"c6b158a6","equityHistory(uint256)":"b0252389","getAgreementDetails()":"b4bd7784","getBalance()":"12065fe0","getEquityDetails()":"efcdcad8","getEquityHistoryCount()":"1413332d","getPendingWithdrawal(address)":"7ee8b2f8","getWithdrawalTimelock()":"536f899b","hasActiveEquity()":"0a945f6c","initiateSettlementWithdrawal()":"52928eec","isAgreementActive()":"e6971037","paused()":"5c975abb","pendingWithdrawals(address)":"f3f43703","proposePartnership(string,string)":"455ab3ad","proposeSettlement(string)":"8c548256","terminateAgreement(string)":"bc831ade","withdraw()":"3ccfd60b"},"id":1}