{"abi":[{"type":"constructor","inputs":[],"stateMutability":"nonpayable"},{"type":"fallback","stateMutability":"payable"},{"type":"receive","stateMutability":"payable"},{"type":"function","name":"ACCEPTANCE_TIMELOCK","inputs":[],"outputs":[{"name":"","type":"uint256","internalType":"uint256"}],"stateMutability":"view"},{"type":"function","name":"CREATOR","inputs":[],"outputs":[{"name":"","type":"address","internalType":"address"}],"stateMutability":"view"},{"type":"function","name":"EQUITY_CLASS","inputs":[],"outputs":[{"name":"","type":"string","internalType":"string"}],"stateMutability":"view"},{"type":"function","name":"EQUITY_RIGHTS","inputs":[],"outputs":[{"name":"","type":"string","internalType":"string"}],"stateMutability":"view"},{"type":"function","name":"PARTNERSHIP_BOND","inputs":[],"outputs":[{"name":"","type":"uint256","internalType":"uint256"}],"stateMutability":"view"},{"type":"function","name":"PARTNERSHIP_EQUITY","inputs":[],"outputs":[{"name":"","type":"uint256","internalType":"uint256"}],"stateMutability":"view"},{"type":"function","name":"SETTLEMENT_AMOUNT","inputs":[],"outputs":[{"name":"","type":"uint256","internalType":"uint256"}],"stateMutability":"view"},{"type":"function","name":"WITHDRAWAL_TIMELOCK","inputs":[],"outputs":[{"name":"","type":"uint256","internalType":"uint256"}],"stateMutability":"view"},{"type":"function","name":"acceptAgreement","inputs":[],"outputs":[],"stateMutability":"nonpayable"},{"type":"function","name":"agreementNonce","inputs":[],"outputs":[{"name":"","type":"uint256","internalType":"uint256"}],"stateMutability":"view"},{"type":"function","name":"cancelProposal","inputs":[],"outputs":[],"stateMutability":"nonpayable"},{"type":"function","name":"currentAgreement","inputs":[],"outputs":[{"name":"agreementType","type":"uint8","internalType":"enum RumbleMediation.AgreementType"},{"name":"status","type":"uint8","internalType":"enum RumbleMediation.AgreementStatus"},{"name":"rumbleAddress","type":"address","internalType":"address"},{"name":"amount","type":"uint256","internalType":"uint256"},{"name":"proposalTimestamp","type":"uint256","internalType":"uint256"},{"name":"acceptanceTimestamp","type":"uint256","internalType":"uint256"},{"name":"termsHash","type":"string","internalType":"string"},{"name":"creatorAccepted","type":"bool","internalType":"bool"},{"name":"fundsLocked","type":"bool","internalType":"bool"}],"stateMutability":"view"},{"type":"function","name":"emergencyPause","inputs":[],"outputs":[],"stateMutability":"nonpayable"},{"type":"function","name":"emergencyUnpause","inputs":[],"outputs":[],"stateMutability":"nonpayable"},{"type":"function","name":"equityGrant","inputs":[],"outputs":[{"name":"percentage","type":"uint256","internalType":"uint256"},{"name":"documentHash","type":"string","internalType":"string"},{"name":"grantedAt","type":"uint256","internalType":"uint256"},{"name":"active","type":"bool","internalType":"bool"},{"name":"nonForfeitable","type":"bool","internalType":"bool"}],"stateMutability":"view"},{"type":"function","name":"equityHistory","inputs":[{"name":"","type":"uint256","internalType":"uint256"}],"outputs":[{"name":"nonce","type":"uint256","internalType":"uint256"},{"name":"percentage","type":"uint256","internalType":"uint256"},{"name":"grantedAt","type":"uint256","internalType":"uint256"},{"name":"terminatedAt","type":"uint256","internalType":"uint256"},{"name":"wasActive","type":"bool","internalType":"bool"},{"name":"terminationReason","type":"string","internalType":"string"}],"stateMutability":"view"},{"type":"function","name":"getAgreementDetails","inputs":[],"outputs":[{"name":"nonce","type":"uint256","internalType":"uint256"},{"name":"agreementType","type":"uint8","internalType":"enum RumbleMediation.AgreementType"},{"name":"status","type":"uint8","internalType":"enum RumbleMediation.AgreementStatus"},{"name":"rumbleAddress","type":"address","internalType":"address"},{"name":"amount","type":"uint256","internalType":"uint256"},{"name":"proposalTimestamp","type":"uint256","internalType":"uint256"},{"name":"acceptanceTimestamp","type":"uint256","internalType":"uint256"},{"name":"termsHash","type":"string","internalType":"string"},{"name":"fundsLocked","type":"bool","internalType":"bool"}],"stateMutability":"view"},{"type":"function","name":"getBalance","inputs":[],"outputs":[{"name":"","type":"uint256","internalType":"uint256"}],"stateMutability":"view"},{"type":"function","name":"getEquityDetails","inputs":[],"outputs":[{"name":"percentage","type":"uint256","internalType":"uint256"},{"name":"documentHash","type":"string","internalType":"string"},{"name":"grantedAt","type":"uint256","internalType":"uint256"},{"name":"active","type":"bool","internalType":"bool"},{"name":"nonForfeitable","type":"bool","internalType":"bool"},{"name":"equityClass","type":"string","internalType":"string"},{"name":"equityRights","type":"string","internalType":"string"}],"stateMutability":"view"},{"type":"function","name":"getEquityHistoryCount","inputs":[],"outputs":[{"name":"","type":"uint256","internalType":"uint256"}],"stateMutability":"view"},{"type":"function","name":"getPendingWithdrawal","inputs":[{"name":"account","type":"address","internalType":"address"}],"outputs":[{"name":"","type":"uint256","internalType":"uint256"}],"stateMutability":"view"},{"type":"function","name":"getWithdrawalTimelock","inputs":[],"outputs":[{"name":"","type":"uint256","internalType":"uint256"}],"stateMutability":"view"},{"type":"function","name":"hasActiveEquity","inputs":[],"outputs":[{"name":"","type":"bool","internalType":"bool"}],"stateMutability":"view"},{"type":"function","name":"initiateSettlementWithdrawal","inputs":[],"outputs":[],"stateMutability":"nonpayable"},{"type":"function","name":"isAgreementActive","inputs":[],"outputs":[{"name":"","type":"bool","internalType":"bool"}],"stateMutability":"view"},{"type":"function","name":"paused","inputs":[],"outputs":[{"name":"","type":"bool","internalType":"bool"}],"stateMutability":"view"},{"type":"function","name":"pendingWithdrawals","inputs":[{"name":"","type":"address","internalType":"address"}],"outputs":[{"name":"","type":"uint256","internalType":"uint256"}],"stateMutability":"view"},{"type":"function","name":"proposePartnership","inputs":[{"name":"_termsHash","type":"string","internalType":"string"},{"name":"_equityDocumentHash","type":"string","internalType":"string"}],"outputs":[],"stateMutability":"payable"},{"type":"function","name":"proposeSettlement","inputs":[{"name":"_termsHash","type":"string","internalType":"string"}],"outputs":[],"stateMutability":"payable"},{"type":"function","name":"terminateAgreement","inputs":[{"name":"_reason","type":"string","internalType":"string"}],"outputs":[],"stateMutability":"nonpayable"},{"type":"function","name":"withdraw","inputs":[],"outputs":[],"stateMutability":"nonpayable"},{"type":"event","name":"AgreementAccepted","inputs":[{"name":"nonce","type":"uint256","indexed":true,"internalType":"uint256"},{"name":"agreementType","type":"uint8","indexed":false,"internalType":"enum RumbleMediation.AgreementType"},{"name":"rumbleAddress","type":"address","indexed":true,"internalType":"address"},{"name":"acceptanceTimestamp","type":"uint256","indexed":false,"internalType":"uint256"}],"anonymous":false},{"type":"event","name":"AgreementProposed","inputs":[{"name":"nonce","type":"uint256","indexed":true,"internalType":"uint256"},{"name":"agreementType","type":"uint8","indexed":false,"internalType":"enum RumbleMediation.AgreementType"},{"name":"rumbleAddress","type":"address","indexed":true,"internalType":"address"},{"name":"amount","type":"uint256","indexed":false,"internalType":"uint256"},{"name":"termsHash","type":"string","indexed":false,"internalType":"string"},{"name":"timestamp","type":"uint256","indexed":false,"internalType":"uint256"}],"anonymous":false},{"type":"event","name":"AgreementTerminated","inputs":[{"name":"nonce","type":"uint256","indexed":true,"internalType":"uint256"},{"name":"terminatedBy","type":"address","indexed":true,"internalType":"address"},{"name":"timestamp","type":"uint256","indexed":false,"internalType":"uint256"},{"name":"reason","type":"string","indexed":false,"internalType":"string"}],"anonymous":false},{"type":"event","name":"EmergencyPause","inputs":[{"name":"timestamp","type":"uint256","indexed":false,"internalType":"uint256"}],"anonymous":false},{"type":"event","name":"EmergencyUnpause","inputs":[{"name":"timestamp","type":"uint256","indexed":false,"internalType":"uint256"}],"anonymous":false},{"type":"event","name":"EquityGranted","inputs":[{"name":"nonce","type":"uint256","indexed":true,"internalType":"uint256"},{"name":"beneficiary","type":"address","indexed":true,"internalType":"address"},{"name":"equityPercentage","type":"uint256","indexed":false,"internalType":"uint256"},{"name":"nonForfeitable","type":"bool","indexed":false,"internalType":"bool"},{"name":"equityClass","type":"string","indexed":false,"internalType":"string"},{"name":"equityRights","type":"string","indexed":false,"internalType":"string"},{"name":"timestamp","type":"uint256","indexed":false,"internalType":"uint256"}],"anonymous":false},{"type":"event","name":"FundsWithdrawn","inputs":[{"name":"to","type":"address","indexed":true,"internalType":"address"},{"name":"amount","type":"uint256","indexed":false,"internalType":"uint256"},{"name":"timestamp","type":"uint256","indexed":false,"internalType":"uint256"}],"anonymous":false},{"type":"event","name":"PartnershipProposed","inputs":[{"name":"nonce","type":"uint256","indexed":true,"internalType":"uint256"},{"name":"rumbleAddress","type":"address","indexed":true,"internalType":"address"},{"name":"bondAmount","type":"uint256","indexed":false,"internalType":"uint256"},{"name":"equityPercentage","type":"uint256","indexed":false,"internalType":"uint256"},{"name":"equityDocument","type":"string","indexed":false,"internalType":"string"},{"name":"equityRights","type":"string","indexed":false,"internalType":"string"},{"name":"timestamp","type":"uint256","indexed":false,"internalType":"uint256"}],"anonymous":false},{"type":"event","name":"WithdrawalReady","inputs":[{"name":"beneficiary","type":"address","indexed":true,"internalType":"address"},{"name":"amount","type":"uint256","indexed":false,"internalType":"uint256"},{"name":"timestamp","type":"uint256","indexed":false,"internalType":"uint256"}],"anonymous":false},{"type":"error","name":"AgreementAlreadyExists","inputs":[]},{"type":"error","name":"ContractPaused","inputs":[]},{"type":"error","name":"FundsAlreadyUnlocked","inputs":[]},{"type":"error","name":"InvalidAddress","inputs":[]},{"type":"error","name":"InvalidAgreementStatus","inputs":[]},{"type":"error","name":"InvalidAmount","inputs":[]},{"type":"error","name":"InvalidTermsHash","inputs":[]},{"type":"error","name":"NoActiveAgreement","inputs":[]},{"type":"error","name":"NoWithdrawalAvailable","inputs":[]},{"type":"error","name":"OnlyCreator","inputs":[]},{"type":"error","name":"OnlyRumble","inputs":[]},{"type":"error","name":"ReentrancyDetected","inputs":[]},{"type":"error","name":"TimelockNotExpired","inputs":[]},{"type":"error","name":"TransferFailed","inputs":[]}],"bytecode":{"object":"0x60806040526001600a55600b805460ff1916905534801561001e575f80fd5b505f600d556121c4806100305f395ff3fe6080604052600436106101db575f3560e01c80638c54825611610101578063c90f793e11610094578063e697103711610063578063e69710371461058d578063eaf05762146105a1578063efcdcad8146105bf578063f3f43703146105e657610245565b8063c90f793e146104fd578063dac96d4a14610526578063dc9f89e81461053a578063e4fbb6091461054e57610245565b8063b4bd7784116100d0578063b4bd778414610472578063bc831ade1461049b578063bced4fb4146104ba578063c6b158a6146104d857610245565b80638c548256146104055780639070577f14610418578063a0cc8d2c1461042c578063b02523891461044157610245565b80634a4e3bd511610179578063536f899b11610148578063536f899b146103835780635c975abb146103975780637ee8b2f8146103b057806380c4ca5c146103e457610245565b80634a4e3bd5146103315780634d4394851461034557806351858e271461035b57806352928eec1461036f57610245565b8063188323f9116101b5578063188323f9146102dd5780633ccfd60b146102f3578063455ab3ad1461030957806345a1fa471461031c57610245565b80630a945f6c1461028557806312065fe0146102ad5780631413332d146102c957610245565b366102455760405162461bcd60e51b815260206004820152602f60248201527f5573652070726f706f7365506172746e6572736869702829206f722070726f7060448201526e6f7365536574746c656d656e74282960881b60648201526084015b60405180910390fd5b60405162461bcd60e51b8152602060048201526015602482015274125b9d985b1a5908199d5b98dd1a5bdb8818d85b1b605a1b604482015260640161023c565b348015610290575f80fd5b5060095460ff165b60405190151581526020015b60405180910390f35b3480156102b8575f80fd5b50475b6040519081526020016102a4565b3480156102d4575f80fd5b50600e546102bb565b3480156102e8575f80fd5b506102bb6201518081565b3480156102fe575f80fd5b50610307610611565b005b610307610317366004611b83565b610734565b348015610327575f80fd5b506102bb6101f481565b34801561033c575f80fd5b506103076109bf565b348015610350575f80fd5b506102bb6202a30081565b348015610366575f80fd5b50610307610a33565b34801561037a575f80fd5b50610307610aa6565b34801561038e575f80fd5b506102bb610c83565b3480156103a2575f80fd5b50600b546102989060ff1681565b3480156103bb575f80fd5b506102bb6103ca366004611be3565b6001600160a01b03165f908152600c602052604090205490565b3480156103ef575f80fd5b506103f8610cc8565b6040516102a49190611c53565b610307610413366004611c65565b610ce4565b348015610423575f80fd5b50610307610e81565b348015610437575f80fd5b506102bb600d5481565b34801561044c575f80fd5b5061046061045b366004611c9f565b610fc8565b6040516102a496959493929190611cb6565b34801561047d575f80fd5b5061048661109c565b6040516102a499989796959493929190611d2c565b3480156104a6575f80fd5b506103076104b5366004611c65565b611199565b3480156104c5575f80fd5b506102bb6a52b7d2dcc80cd2e400000081565b3480156104e3575f80fd5b506104ec611420565b6040516102a4959493929190611d99565b348015610508575f80fd5b506105116114ce565b6040516102a499989796959493929190611dd0565b348015610531575f80fd5b5061030761159e565b348015610545575f80fd5b506103f8611921565b348015610559575f80fd5b50610575735635e21b1ea43b65b3bf96283b09d094478e279381565b6040516001600160a01b0390911681526020016102a4565b348015610598575f80fd5b5061029861193d565b3480156105ac575f80fd5b506102bb6a295be96e6406697200000081565b3480156105ca575f80fd5b506105d3611961565b6040516102a49796959493929190611e3c565b3480156105f1575f80fd5b506102bb610600366004611be3565b600c6020525f908152604090205481565b600a546001146106345760405163c5f2be5160e01b815260040160405180910390fd5b6002600a55335f908152600c60205260408120549081900361066957604051632632599760e01b815260040160405180910390fd5b335f818152600c60205260408082208290555190919083908381818185875af1925050503d805f81146106b7576040519150601f19603f3d011682016040523d82523d5f602084013e6106bc565b606091505b50509050806106f057335f908152600c60205260409081902083905580516312171d8360e31b815290519081900360040190fd5b6040805183815242602082015233917ffbc3a599b784fe88772fc5abcc07223f64ca0b13acc341f4fb1e46bef0510eb491015b60405180910390a250506001600a55565b600b5460ff16156107585760405163ab35696f60e01b815260040160405180910390fd5b600a5460011461077b5760405163c5f2be5160e01b815260040160405180910390fd5b6002600a556a52b7d2dcc80cd2e40000003481146107ac5760405163162908e360e11b815260040160405180910390fd5b6107b4611a5f565b6107bd83611ac2565b6107c682611ac2565b600d8054905f6107d583611eb2565b9091555050604080516101208101825260018082526020820181905233928201839052346060830181905242608084018190525f60a0850181905260c0850189905260e08501819052610100850184905280546001600160b01b03191662010000909602959095176101011785559155600255600382905590600461085a8682611f50565b5060e082015160059190910180546101009384015161ffff1990911692151561ff001916929092179115159092021790556040805160a0810182526101f4808252602082018590525f92820183905260608201929092526001608082015260069182559060076108ca8582611f50565b50604082810151600283015560608301516003909201805460809094015115156101000261ff00199315159390931661ffff199094169390931791909117909155600d5490513391907fed43a46c12e63176b331f4df259866a37ee326d94dbd18afb3c63039caf7d0c1906109479060019034908990429061200c565b60405180910390a3336001600160a01b0316600d547fa1bec0276d9efd8fe681aa61e0ab2d513f257405d7f4d532ebeb24110065c932346101f4866040518060800160405280604a8152602001612145604a9139426040516109ad959493929190612042565b60405180910390a350506001600a5550565b33735635e21b1ea43b65b3bf96283b09d094478e2793146109f3576040516308f78f9960e31b815260040160405180910390fd5b600b805460ff191690556040514281527f1e7a8ac67210be5d6edb8a93048473305f40bd55241b6a205517452213cdb06f906020015b60405180910390a1565b33735635e21b1ea43b65b3bf96283b09d094478e279314610a67576040516308f78f9960e31b815260040160405180910390fd5b600b805460ff191660011790556040517f587f3b25da67017c0da715067ea23a00ce02a7692dde05787d04b933a068819890610a299042815260200190565b33735635e21b1ea43b65b3bf96283b09d094478e279314610ada576040516308f78f9960e31b815260040160405180910390fd5b600a54600114610afd5760405163c5f2be5160e01b815260040160405180910390fd5b6002600a8190555f54610100900460ff166003811115610b1f57610b1f611cf4565b14610b3d5760405163af22741760e01b815260040160405180910390fd5b60025f5460ff166002811115610b5557610b55611cf4565b14610b735760405163af22741760e01b815260040160405180910390fd5b600554610100900460ff16610b9b57604051630786e20360e41b815260040160405180910390fd5b6003545f90610bae906202a30090612085565b905080421015610bd15760405163621e25c360e01b815260040160405180910390fd5b600180545f918290556005805461ff0019169055735635e21b1ea43b65b3bf96283b09d094478e27938252600c6020527f1ec02b8b40aab1d3b8bcc4eda42dc39b3a54a48a1d095cab09b89699578a0f95805491928392610c33908490612085565b909155505060408051828152426020820152735635e21b1ea43b65b3bf96283b09d094478e2793917fbde9dd77301c124ff58cc22d02f35d6f26cd71412fa385b4ac5991838029ba4a9101610723565b6003545f908103610c9457505f1990565b6003545f90610ca7906202a30090612085565b905080421015610cc057610cbb428261209e565b610cc2565b5f5b91505090565b6040518060600160405280602c8152602001612119602c913981565b600b5460ff1615610d085760405163ab35696f60e01b815260040160405180910390fd5b600a54600114610d2b5760405163c5f2be5160e01b815260040160405180910390fd5b6002600a556a295be96e64066972000000348114610d5c5760405163162908e360e11b815260040160405180910390fd5b610d64611a5f565b610d6d82611ac2565b600d8054905f610d7c83611eb2565b90915550506040805161012081018252600280825260016020830181905233938301849052346060840181905242608085018190525f60a0860181905260c0860189905260e08601819052610100860184905280546001600160b01b0319166201000090970296909617610102178655915590556003829055906004610e028582611f50565b5060e082015160059190910180546101009384015161ffff1990911692151561ff00191692909217911515909202179055600d546040513391907fed43a46c12e63176b331f4df259866a37ee326d94dbd18afb3c63039caf7d0c190610e709060029034908890429061200c565b60405180910390a350506001600a55565b5f546201000090046001600160a01b0316610eaf5760405163e6c4247b60e01b815260040160405180910390fd5b5f546201000090046001600160a01b03163314610edf57604051631901485d60e31b815260040160405180910390fd5b600a54600114610f025760405163c5f2be5160e01b815260040160405180910390fd5b6002600a5560015f54610100900460ff166003811115610f2457610f24611cf4565b14610f425760405163af22741760e01b815260040160405180910390fd5b600180545f805461030061ff00199182161782559281905560058054909316909255338252600c60205260408220805491928392610f81908490612085565b90915550506040805182815242602082015233917fbde9dd77301c124ff58cc22d02f35d6f26cd71412fa385b4ac5991838029ba4a910160405180910390a2506001600a55565b600e8181548110610fd7575f80fd5b5f91825260209091206006909102018054600182015460028301546003840154600485015460058601805495975093959294919360ff909116929161101b90611eca565b80601f016020809104026020016040519081016040528092919081815260200182805461104790611eca565b80156110925780601f1061106957610100808354040283529160200191611092565b820191905f5260205f20905b81548152906001019060200180831161107557829003601f168201915b5050505050905086565b600d545f805460015460025460035460055460048054969788978897889788978897889760609789979660ff80881697610100808204831698620100009092046001600160a01b0316979196919591949391049091169082906110fe90611eca565b80601f016020809104026020016040519081016040528092919081815260200182805461112a90611eca565b80156111755780601f1061114c57610100808354040283529160200191611175565b820191905f5260205f20905b81548152906001019060200180831161115857829003601f168201915b50505050509150985098509850985098509850985098509850909192939495969798565b33735635e21b1ea43b65b3bf96283b09d094478e2793146111cd576040516308f78f9960e31b815260040160405180910390fd5b600a546001146111f05760405163c5f2be5160e01b815260040160405180910390fd5b6002600a8190555f54610100900460ff16600381111561121257611212611cf4565b146112305760405163af22741760e01b815260040160405180910390fd5b5f805461ff001916610300179055600d546040513391907f5f1864be0cf3e7cfe0acdea144e7f6c03dd92322b8059b0f52dd2c5f41ac2f1b9061127690429086906120b1565b60405180910390a360015f5460ff16600281111561129657611296611cf4565b1480156112a4575060015415155b1561141857600180545f918290556005805461ff00191690556009805460ff19169055905b600e5481101561139d57600d54600e82815481106112e9576112e96120c9565b905f5260205f2090600602015f015414801561132a5750600e8181548110611313576113136120c9565b5f91825260209091206004600690920201015460ff165b1561138b5742600e8281548110611343576113436120c9565b905f5260205f2090600602016003018190555082600e828154811061136a5761136a6120c9565b905f5260205f20906006020160050190816113859190611f50565b5061139d565b8061139581611eb2565b9150506112c9565b505f80546201000090046001600160a01b03168152600c6020526040812080548392906113cb908490612085565b90915550505f5460408051838152426020820152620100009092046001600160a01b0316917fbde9dd77301c124ff58cc22d02f35d6f26cd71412fa385b4ac5991838029ba4a9101610723565b506001600a55565b600680546007805491929161143490611eca565b80601f016020809104026020016040519081016040528092919081815260200182805461146090611eca565b80156114ab5780601f10611482576101008083540402835291602001916114ab565b820191905f5260205f20905b81548152906001019060200180831161148e57829003601f168201915b50505050600283015460039093015491929160ff80821692506101009091041685565b5f80546001546002546003546004805460ff808716976101008804909116966201000090046001600160a01b031695949392909161150b90611eca565b80601f016020809104026020016040519081016040528092919081815260200182805461153790611eca565b80156115825780601f1061155957610100808354040283529160200191611582565b820191905f5260205f20905b81548152906001019060200180831161156557829003601f168201915b5050506005909301549192505060ff8082169161010090041689565b33735635e21b1ea43b65b3bf96283b09d094478e2793146115d2576040516308f78f9960e31b815260040160405180910390fd5b600b5460ff16156115f65760405163ab35696f60e01b815260040160405180910390fd5b600a546001146116195760405163c5f2be5160e01b815260040160405180910390fd5b6002600a5560015f54610100900460ff16600381111561163b5761163b611cf4565b146116595760405163af22741760e01b815260040160405180910390fd5b60025461166a906201518090612085565b42101561168a5760405163621e25c360e01b815260040160405180910390fd5b5f805461020061ff00198216179091556005805460ff19166001908117909155426003559060ff1660028111156116c3576116c3611cf4565b036118c95760098054600160ff1991821681179092554260088190556040805160c081018252600d5481526101f460208083019182528284019485525f6060840181815260808501898152865193840190965281835260a08501928352600e8054998a01815590915283517fbb7b4a454dc3493923482f07822329ed19e8244eff582cc204f8554c3620c3fd600690990298890190815592517fbb7b4a454dc3493923482f07822329ed19e8244eff582cc204f8554c3620c3fe89015594517fbb7b4a454dc3493923482f07822329ed19e8244eff582cc204f8554c3620c3ff88015593517fbb7b4a454dc3493923482f07822329ed19e8244eff582cc204f8554c3620c40087015591517fbb7b4a454dc3493923482f07822329ed19e8244eff582cc204f8554c3620c40186018054909516901515179093559051919290917fbb7b4a454dc3493923482f07822329ed19e8244eff582cc204f8554c3620c402909101906118329082611f50565b505050735635e21b1ea43b65b3bf96283b09d094478e27936001600160a01b0316600d547fccd3fca0964b06ce914f55c0cfdb23325813afc4abb4bd0032ad1b76edaa090e6101f460016040518060600160405280602c8152602001612119602c91396040518060800160405280604a8152602001612145604a9139426040516118c09594939291906120dd565b60405180910390a35b5f54600d546040516001600160a01b0362010000840416927f223987ca7f746b73e791afba0695e118eef70630a727133680dbb7f9e69bfc61916119129160ff169042906120fd565b60405180910390a36001600a55565b6040518060800160405280604a8152602001612145604a913981565b5f60025f54610100900460ff16600381111561195b5761195b611cf4565b14905090565b600654600854600954604080516060818101909252602c8082525f9592948694859485948894859492936007939260ff80831693610100909304169161211960208301396040518060800160405280604a8152602001612145604a91398580546119ca90611eca565b80601f01602080910402602001604051908101604052809291908181526020018280546119f690611eca565b8015611a415780601f10611a1857610100808354040283529160200191611a41565b820191905f5260205f20905b815481529060010190602001808311611a2457829003601f168201915b50505050509550965096509650965096509650965090919293949596565b60015f54610100900460ff166003811115611a7c57611a7c611cf4565b1480611aa2575060025f54610100900460ff166003811115611aa057611aa0611cf4565b145b15611ac05760405163ce8dc70f60e01b815260040160405180910390fd5b565b80515f03611ae3576040516392a3c43160e01b815260040160405180910390fd5b50565b634e487b7160e01b5f52604160045260245ffd5b5f82601f830112611b09575f80fd5b813567ffffffffffffffff80821115611b2457611b24611ae6565b604051601f8301601f19908116603f01168101908282118183101715611b4c57611b4c611ae6565b81604052838152866020858801011115611b64575f80fd5b836020870160208301375f602085830101528094505050505092915050565b5f8060408385031215611b94575f80fd5b823567ffffffffffffffff80821115611bab575f80fd5b611bb786838701611afa565b93506020850135915080821115611bcc575f80fd5b50611bd985828601611afa565b9150509250929050565b5f60208284031215611bf3575f80fd5b81356001600160a01b0381168114611c09575f80fd5b9392505050565b5f81518084525f5b81811015611c3457602081850181015186830182015201611c18565b505f602082860101526020601f19601f83011685010191505092915050565b602081525f611c096020830184611c10565b5f60208284031215611c75575f80fd5b813567ffffffffffffffff811115611c8b575f80fd5b611c9784828501611afa565b949350505050565b5f60208284031215611caf575f80fd5b5035919050565b868152856020820152846040820152836060820152821515608082015260c060a08201525f611ce860c0830184611c10565b98975050505050505050565b634e487b7160e01b5f52602160045260245ffd5b60038110611d1857611d18611cf4565b9052565b60048110611d1857611d18611cf4565b5f6101208b8352611d40602084018c611d08565b611d4d604084018b611d1c565b60018060a01b03891660608401528760808401528660a08401528560c08401528060e0840152611d7f81840186611c10565b9150508215156101008301529a9950505050505050505050565b85815260a060208201525f611db160a0830187611c10565b6040830195909552509115156060830152151560809091015292915050565b5f610120611dde838d611d08565b611deb602084018c611d1c565b60018060a01b038a1660408401528860608401528760808401528660a08401528060c0840152611e1d81840187611c10565b94151560e0840152505090151561010090910152979650505050505050565b87815260e060208201525f611e5460e0830189611c10565b8760408401528615156060840152851515608084015282810360a0840152611e7c8186611c10565b905082810360c0840152611e908185611c10565b9a9950505050505050505050565b634e487b7160e01b5f52601160045260245ffd5b5f60018201611ec357611ec3611e9e565b5060010190565b600181811c90821680611ede57607f821691505b602082108103611efc57634e487b7160e01b5f52602260045260245ffd5b50919050565b601f821115611f4b575f81815260208120601f850160051c81016020861015611f285750805b601f850160051c820191505b81811015611f4757828155600101611f34565b5050505b505050565b815167ffffffffffffffff811115611f6a57611f6a611ae6565b611f7e81611f788454611eca565b84611f02565b602080601f831160018114611fb1575f8415611f9a5750858301515b5f19600386901b1c1916600185901b178555611f47565b5f85815260208120601f198616915b82811015611fdf57888601518255948401946001909101908401611fc0565b5085821015611ffc57878501515f19600388901b60f8161c191681555b5050505050600190811b01905550565b6120168186611d08565b836020820152608060408201525f6120316080830185611c10565b905082606083015295945050505050565b85815284602082015260a060408201525f61206060a0830186611c10565b82810360608401526120728186611c10565b9150508260808301529695505050505050565b8082018082111561209857612098611e9e565b92915050565b8181038181111561209857612098611e9e565b828152604060208201525f611c976040830184611c10565b634e487b7160e01b5f52603260045260245ffd5b858152841515602082015260a060408201525f61206060a0830186611c10565b6040810161210b8285611d08565b826020830152939250505056fe46756c6c792064696c757465642c2073616d6520636c61737320617320666f756e646572732f636f6d6d6f6e4e6f6e2d666f726665697461626c652c206e6f20726570757263686173652c206e6f20636c61776261636b2c206e6f20647261672d616c6f6e6720776974686f757420636f6e73656e74a26469706673582212204de2eab4ff22c5cbf1130fa1297c15c5ef6121aac0ca1946c8488ee3e6094de764736f6c63430008140033","linkReferences":{}},"methodIdentifiers":{"ACCEPTANCE_TIMELOCK()":"188323f9","CREATOR()":"e4fbb609","EQUITY_CLASS()":"80c4ca5c","EQUITY_RIGHTS()":"dc9f89e8","PARTNERSHIP_BOND()":"bced4fb4","PARTNERSHIP_EQUITY()":"45a1fa47","SETTLEMENT_AMOUNT()":"eaf05762","WITHDRAWAL_TIMELOCK()":"4d439485","acceptAgreement()":"dac96d4a","agreementNonce()":"a0cc8d2c","cancelProposal()":"9070577f","currentAgreement()":"c90f793e","emergencyPause()":"51858e27","emergencyUnpause()":"4a4e3bd5","equityGrant()":"c6b158a6","equityHistory(uint256)":"b0252389","getAgreementDetails()":"b4bd7784","getBalance()":"12065fe0","getEquityDetails()":"efcdcad8","getEquityHistoryCount()":"1413332d","getPendingWithdrawal(address)":"7ee8b2f8","getWithdrawalTimelock()":"536f899b","hasActiveEquity()":"0a945f6c","initiateSettlementWithdrawal()":"52928eec","isAgreementActive()":"e6971037","paused()":"5c975abb","pendingWithdrawals(address)":"f3f43703","proposePartnership(string,string)":"455ab3ad","proposeSettlement(string)":"8c548256","terminateAgreement(string)":"bc831ade","withdraw()":"3ccfd60b"},"id":0}